:100000000C942A020C9447020C9447020C94470269
:100010000C9447020C9447020C9447020C9447023C
:100020000C9447020C9447020C9447020C9447022C
:100030000C9447020C9447020C9447020C9447021C
:100040000C9447020C9447020C9447020C9447020C
:100050000C944702637C777BF26B6FC53001672B92
:10006000FED7AB76CA82C97DFA5947F0ADD4A2AFAC
:100070009CA472C0B7FD9326363FF7CC34A5E5F1BA
:1000800071D8311504C723C31896059A071280E268
:10009000EB27B27509832C1A1B6E5AA0523BD6B3BC
:1000A00029E32F8453D100ED20FCB15B6ACBBE392C
:1000B0004A4C58CFD0EFAAFB434D338545F9027F18
:1000C000503C9FA851A3408F929D38F5BCB6DA21D1
:1000D00010FFF3D2CD0C13EC5F974417C4A77E3DFD
:1000E000645D197360814FDC222A908846EEB81453
:1000F000DE5E0BDBE0323A0A4906245CC2D3AC6216
:100100009195E479E7C8376D8DD54EA96C56F4EA20
:10011000657AAE08BA78252E1CA6B4C6E8DD741F31
:100120004BBD8B8A703EB5664803F60E613557B9F4
:1001300086C11D9EE1F8981169D98E949B1E87E9AE
:10014000CE5528DF8CA1890DBFE6426841992D0F5D
:10015000B054BB168D01020408102040801B366C81
:10016000D8AB4D9A2F5EBC63C697356AD4B37DFA7F
:10017000EFC5913972E4D3BD61C29F254A943366BD
:10018000CC831D3A74E8CB8D010204081020408016
:100190001B366CD8AB4D9A2F5EBC63C697356AD4BC
:1001A000B37DFAEFC5913972E4D3BD61C29F254A90
:1001B000943366CC831D3A74E8CB8D010204081099
:1001C0002040801B366CD8AB4D9A2F5EBC63C6971F
:1001D000356AD4B37DFAEFC5913972E4D3BD61C2FB
:1001E0009F254A943366CC831D3A74E8CB8D010277
:1001F0000408102040801B366CD8AB4D9A2F5EBC93
:1002000063C697356AD4B37DFAEFC5913972E4D3EA
:10021000BD61C29F254A943366CC831D3A74E8CBF6
:100220008D01020408102040801B366CD8AB4D9A1B
:100230002F5EBC63C697356AD4B37DFAEFC591399A
:1002400072E4D3BD61C29F254A943366CC831D3AC4
:1002500074E8CB00020406080A0C0E1012141618DB
:100260001A1C1E20222426282A2C2E3032343638FE
:100270003A3C3E40424446484A4C4E5052545658EE
:100280005A5C5E60626466686A6C6E7072747678DE
:100290007A7C7E80828486888A8C8E9092949698CE
:1002A0009A9C9EA0A2A4A6A8AAACAEB0B2B4B6B8BE
:1002B000BABCBEC0C2C4C6C8CACCCED0D2D4D6D8AE
:1002C000DADCDEE0E2E4E6E8EAECEEF0F2F4F6F89E
:1002D000FAFCFE1B191F1D131117150B090F0D0337
:1002E0000107053B393F3D333137352B292F2D236E
:1002F0002127255B595F5D535157554B494F4D435E
:100300004147457B797F7D737177756B696F6D634D
:100310006167659B999F9D939197958B898F8D833D
:10032000818785BBB9BFBDB3B1B7B5ABA9AFADA32D
:10033000A1A7A5DBD9DFDDD3D1D7D5CBC9CFCDC31D
:10034000C1C7C5FBF9FFFDF3F1F7F5EBE9EFEDE30D
:10035000E1E7E5000306050C0F0A09181B1E1D1432
:10036000171211303336353C3F3A39282B2E2D24C5
:10037000272221606366656C6F6A69787B7E7D7475
:10038000777271505356555C5F5A59484B4E4D44E5
:10039000474241C0C3C6C5CCCFCAC9D8DBDEDDD415
:1003A000D7D2D1F0F3F6F5FCFFFAF9E8EBEEEDE485
:1003B000E7E2E1A0A3A6A5ACAFAAA9B8BBBEBDB4B5
:1003C000B7B2B1909396959C9F9A99888B8E8D84A5
:1003D0008782819B989D9E97949192838085868F3A
:1003E0008C898AABA8ADAEA7A4A1A2B3B0B5B6BFA5
:1003F000BCB9BAFBF8FDFEF7F4F1F2E3E0E5E6EF95
:10040000ECE9EACBC8CDCEC7C4C1C2D3D0D5D6DFC4
:10041000DCD9DA5B585D5E57545152434045464F34
:100420004C494A6B686D6E67646162737075767F64
:100430007C797A3B383D3E37343132232025262FD4
:100440002C292A0B080D0E07040102131015161F84
:100450001C191A0011241FBECFE5D8E0DEBFCDBFA6
:1004600010E0A0E6B0E0E4ECF0E202C005900D92EE
:10047000A438B107D9F722E0A4E8B0E001C01D928A
:10048000AD3CB207E1F70E94810B0C9460100C9414
:100490000000CF93DF93D0E0C4E89881D2E0CBE5B1
:1004A0007881D0E0C9EA880F880F880F880FC80FBD
:1004B000D11DF091A800E091A70040E13081572FB5
:1004C00059915927532751934A95C1F7DF91CF91FD
:1004D0000895CF93DF93F091A800E091A70040E149
:1004E000D1E0C9E53081C30FD11D5881519350919E
:1004F0005B024A95A9F7DF91CF9108952F923F9221
:100500004F925F926F927F928F929F92AF92BF9223
:10051000CF92DF92EF92FF920F931F93CF93DF93CF
:10052000EF93FF93B92FA82FD72FC62FF52FE42FC6
:10053000BD9ABF9AC59AC79A00E11127C00FD11F73
:1005400020E10D91119101270A932A95D1F7C598C1
:10055000C798FF91EF91DF91CF911F910F91FF907D
:10056000EF90DF90CF90BF90AF909F908F907F9053
:100570006F905F904F903F902F90112408952F928D
:100580003F924F925F926F927F928F929F92AF9223
:10059000BF92CF92DF92EF92FF920F931F93CF9370
:1005A000DF93EF93FF93A82FB92FC62FD72FE42FF8
:1005B000F52FBD9ABF9AC59AC79A00E11127A00FDF
:1005C000B11F20E10E911191012709932A95D1F7CE
:1005D000C598C798FF91EF91DF91CF911F910F912F
:1005E000FF90EF90DF90CF90BF90AF909F908F9053
:1005F0007F906F905F904F903F902F9011240895BF
:1006000065E16A95F1F7089569E7FBCF7F936F93F2
:100610005F934F9361E060935C02BE98C698B69971
:10062000FECFB699FCCF882799276FE1EADF22D069
:10063000000059E0442762E400000000E2DF1AD025
:10064000470F889470FD0894879561E45A95B1F737
:10065000881F40FD08C06CE4D4DF99274F915F915B
:100660006F917F9108956CE4CCDFBE9AC69866EBDB
:10067000C8DFD3CF77278894B6990894791FC0DF55
:100680008894B6990894791FBBDF8894B69908942A
:10069000791F769508956F937F9360915C0266232E
:1006A00029F0B2DFB1DF60E060935C02C69ABE9AC7
:1006B000C69867E7A6DF98E07727879510F0C69879
:1006C00002C0C69A739566E79CDF00009A95A9F769
:1006D00070FD04C000000000C69804C00000C69A67
:1006E0000000000060E78DDFC69A67E78ADFBE98EA
:1006F000C6988894B699089430F08795B699FECF3D
:100700006AE37FDFD3CF64E77CDF7F916F91089549
:10071000CF93DF9300D000D0CDB7DEB78C838C8130
:10072000882F90E08C5A9F4F9A83898389819A8180
:10073000FC0184918B838B810F900F900F900F9011
:10074000DF91CF910895CF93DF9300D000D0CDB744
:10075000DEB78C838C81882F90E08C5A9E4F9A83D1
:10076000898389819A81FC0184918B838B810F908D
:100770000F900F900F90DF91CF910895CF93DF935B
:1007800000D000D0CDB7DEB78C838C81882F90E06D
:100790008D5A9D4F9A83898389819A81FC01849126
:1007A0008B838B810F900F900F900F90DF91CF91E3
:1007B0000895CF93DF9300D000D0CDB7DEB78C8300
:1007C0008C81882F90E08D5A9C4F9A8389838981F0
:1007D0009A81FC0184918B838B810F900F900F90F5
:1007E0000F90DF91CF910895CF93DF93CDB7DEB710
:1007F00027970FB6F894DEBF0FBECDBF9B838A83C9
:100800007D836C835F834E838C819D8190935A029C
:1008100080935902198215C08981882F90E02E811A
:100820003F81820F931F2981222F30E04A815B8113
:10083000240F351FF9012081FC01208389818F5FFE
:1008400089838981803140F38E819F819093A800B4
:100850008093A7000E94AF0480918500909186004C
:1008600080935B0280918500909186009695879594
:1008700090938600809385000E94FD0680E00E9490
:1008800049020E9469020E94FD050E94590680915A
:1008900085009091860080935B0280918500909105
:1008A000860096958795909386008093850081E0D9
:1008B0000E94AF0582E089831CC00E9469020E94E9
:1008C000FD050E94590680918500909186008093D5
:1008D0005B02809185009091860096958795909314
:1008E00086008093850089810E94AF0589818F5F92
:1008F000898389818A3008F30E9469020E94FD057C
:10090000809185009091860080935B0280918500A4
:1009100090918600969587959093860080938500A8
:100920008AE00E94AF050E9422080E94ED0F907895
:1009300099231CF401979F6F0196809384000E9475
:10094000ED0F9093860080938500000027960FB6E8
:10095000F894DEBF0FBECDBFDF91CF910895CF9346
:10096000DF93CDB7DEB729970FB6F894DEBF0FBE81
:10097000CDBF198224C08981882F90E0880F991FEC
:10098000880F991F9C0127553F4F40915902509164
:100990005A028981882F90E0880F991F880F991F2C
:1009A000840F951FFC0180819181A281B381F9019F
:1009B00080839183A283B38389818F5F89838981B7
:1009C0008430C8F21A821B821C821D8284E08983D3
:1009D000B8C08981882F90E08150904C880F991F72
:1009E000880F991F87559F4FFC0180819181A281BB
:1009F000B3818A839B83AC83BD8389818370882381
:100A000009F075C08A819B81AC81BD81FA2FAB2F23
:100A1000B82F892F9F2F8A839B83AC83BD838A81C4
:100A20000E9488038E838A819B81AC81BD81892F3E
:100A30009A2FAB2FBB270E9488038F838A819B81CB
:100A4000AC81BD81CD01AA27BB270E94880388877E
:100A50008A819B81AC81BD818B2F9927AA27BB27D7
:100A60000E94880389878E81282F30E040E050E083
:100A70008F81882F90E0A0E0B0E0BA2FA92F982FA7
:100A80008827282B392B4A2B5B2B8885882F90E0D1
:100A9000A0E0B0E0DC0199278827282B392B4A2BCE
:100AA0005B2B8985882F90E0A0E0B0E0B82FAA27C3
:100AB00099278827822B932BA42BB52B8A839B8382
:100AC000AC83BD838981869586950E94A303882F78
:100AD00090E0A0E0B0E02A813B814C815D818227DB
:100AE0009327A427B5278A839B83AC83BD83898101
:100AF000882F90E0880F991F880F991FBC016755B8
:100B00007F4F8981882F90E08450904C880F991FE7
:100B1000880F991F87559F4FFC01208131814281A9
:100B200053818A819B81AC81BD8182279327A42731
:100B3000B527FB0180839183A283B38389818F5F73
:100B4000898389818C3208F444CF000029960FB63E
:100B5000F894DEBF0FBECDBFDF91CF910895CF9344
:100B6000DF9300D000D000D0CDB7DEB78E83809168
:100B7000A7009091A8009B838A838E81282F30E064
:100B800080E1882F90E0289FA001299F500D389F79
:100B9000500D1124CA0187559F4F9D838C83198264
:100BA0001FC08981882F90E02A813B81820F931F8B
:100BB0002981222F30E04A815B81240F351FF90102
:100BC00060812981222F30E04C815D81240F351F07
:100BD000F90120812627FC01208389818F5F898389
:100BE00089818031F0F2000026960FB6F894DEBFBE
:100BF0000FBECDBFDF91CF910895EF92FF920F937B
:100C00001F93CF93DF93CDB7DEB70091A70010916C
:100C1000A800F801F180C8010196F8012581FC01C6
:100C20002083C8010596F8012185FC012083C801B5
:100C30000996F8012585FC012083C8010D96FC0169
:100C4000F082F801F280F801E680C8010296F8010E
:100C50002285FC012083C8010696F8012685FC0147
:100C60002083C8010A96FC01F082C8010E96FC019F
:100C7000E082F801F784C8010F96F8012385FC0192
:100C80002083C8010B96F8012781FC012083C8014D
:100C90000796F8012381FC012083C8010396FC011B
:100CA000F0820000DF91CF911F910F91FF90EF90A4
:100CB00008959F92AF92BF92CF92DF92EF92FF92F0
:100CC0000F931F93CF93DF9300D0CDB7DEB7809102
:100CD000A7009091A8009A83898300E010E07AC071
:100CE00089819A819C012F5F3F4F3A832983FC01C0
:100CF000C08089819A819C012F5F3F4F3A8329836D
:100D0000FC01D08089819A819C012F5F3F4F3A83FB
:100D10002983FC01E08089819A819C012F5F3F4FEC
:100D20003A832983FC01F0808C2D0E94BE03B82EEB
:100D30008D2D0E94D9038B258E25982E9F248D2DD5
:100D40000E94BE03B82EBC248E2D0E94D9038B2591
:100D5000A82EAF24BC2CBD248E2D0E94BE03B82625
:100D60008F2D0E94D903B8268C2D0E94D9038D2582
:100D7000E8268F2D0E94BE03FE2CF82689819A81D9
:100D800004979A83898389819A819C012F5F3F4FC1
:100D90003A832983FC01908289819A819C012F5F8B
:100DA0003F4F3A832983FC01A08289819A819C016B
:100DB0002F5F3F4F3A832983FC01B08289819A815A
:100DC0009C012F5F3F4F3A832983FC01F082C801C9
:100DD00001968C01043011050CF482CF00000F90B5
:100DE0000F90DF91CF911F910F91FF90EF90DF90C7
:100DF000CF90BF90AF909F900895EF92FF920F9386
:100E00001F93CF93DF93CDB7DEB76B970FB6F894F0
:100E1000DEBF0FBECDBF198284E590E09B838A833D
:100E20008A819B819C012F5F3F4F3B832A839D8357
:100E30008C838C819D81FC0184918E839E81809125
:100E40008400E92EE8268A819B819C012F5F3F4F19
:100E50003B832A8398878F838F819885FC018491B7
:100E60008987998580918400F92EF8268A819B8153
:100E70009C012F5F3F4F3B832A839B878A878A850C
:100E80009B85FC0184918C879C8580918400092F2F
:100E900008278A819B819C012F5F3F4F3B832A83D8
:100EA0009E878D878D859E85FC0184918F879F8588
:100EB00080918400192F1827898191E0980F9983D8
:100EC000909184008927882F90E0875A9E4FFC01DB
:100ED000E082898191E0980F99839091840089271D
:100EE000882F90E0875A9E4FFC01F082898191E023
:100EF000980F9983909184008927882F90E0875AD2
:100F00009E4FFC010083898191E0980F9983909115
:100F100084008927882F90E0875A9E4FFC01108318
:100F20008A819B819C012F5F3F4F3B832A83998B52
:100F3000888B88899989FC0184918A8B9A89809110
:100F40008400E92EE8268A819B819C012F5F3F4F18
:100F50003B832A839C8B8B8B8B899C89FC0184919E
:100F60008D8B9D8980918400F92EF8268A819B8142
:100F70009C012F5F3F4F3B832A839F8B8E8B8E89F3
:100F80009F89FC018491888F988D80918400092F1E
:100F900008278A819B819C012F5F3F4F3B832A83D7
:100FA0009A8F898F898D9A8DFC0184918B8F9B8D6F
:100FB00080918400192F1827898191E0980F9983D7
:100FC000909184008927882F90E0875A9E4FFC01DA
:100FD000E082898191E0980F99839091840089271C
:100FE000882F90E0875A9E4FFC01F082898191E022
:100FF000980F9983909184008927882F90E0875AD1
:101000009E4FFC010083898191E0980F9983909114
:1010100084008927882F90E0875A9E4FFC01108317
:101020008981882309F0FCCE00006B960FB6F894F6
:10103000DEBF0FBECDBFDF91CF911F910F91FF900B
:10104000EF900895CF93DF9300D0CDB7DEB719822C
:1010500036C01A822EC04091A7005091A800898105
:10106000282F30E08A81882F90E0A091A700B091CE
:10107000A8006981E62FF0E06A81662F70E0EE0F2C
:10108000FF1FEE0FFF1FEA0FFB1F6E0F7F1FFB01FD
:101090007081609184006727220F331F220F331F56
:1010A000240F351F820F931FFC0160838A818F5F9D
:1010B0008A838A81843078F289818F5F89838981EC
:1010C000843038F200000F900F90DF91CF91089597
:1010D000CF93DF9300D000D0CDB7DEB79A8389835A
:1010E0007C836B8389819A81FC0120818B819C8127
:1010F000FC01208389819A81FC0121818B819C8163
:10110000FC01218389819A81FC018181813CD9F490
:1011100089819A81FC0120818B819C81FC01208343
:101120008B819C8121EEFC0121838B819C8121E0BC
:10113000FC01228389819A81FC0123818B819C811E
:10114000FC0126839AC089819A81FC018381882FC2
:1011500090E08038910509F08BC089819A81FC016B
:101160008481882F90E080359105E9F181359105E2
:101170003CF48034910569F082349105F9F072C035
:101180008235910509F444C08036910509F455C0B3
:1011900069C089819A8140E160E10E9445098130FE
:1011A00041F42B813C8189819A81B9010E946709B0
:1011B0005EC08B819C810E94820F59C089819A8177
:1011C00040E160E10E944509813041F42B813C817E
:1011D00089819A81B9010E948A0949C08B819C81C9
:1011E0000E94820F44C089819A8140E160E10E949F
:1011F0004509813041F42B813C8189819A81B90173
:101200000E94AD0934C08B819C810E94820F2FC047
:1012100089819A8140E160E10E944509813041F471
:101220002B813C8189819A81B9010E94D0091FC01C
:101230008B819C810E94820F1AC089819A8140E132
:1012400060E10E944509813041F42B813C81898114
:101250009A81B9010E94F3090AC08B819C810E9486
:10126000820F05C08B819C810E94630F000005C026
:101270008B819C810E94440F000000000F900F9012
:101280000F900F90DF91CF910895CF93DF9300D00F
:1012900000D0CDB7DEB79A8389836B834C83898175
:1012A0009A81FC0197818B81981749F489819A81F1
:1012B000FC0190858C81981711F481E001C08FEFBB
:1012C0000F900F900F900F90DF91CF910895CF93D3
:1012D000DF9300D000D0CDB7DEB79A8389837C83BB
:1012E0006B8389819A810E94160A44E650E067E97F
:1012F00070E087E890E00E94C10A8B819C8160E1E8
:101300000E94430A00000F900F900F900F90DF9102
:10131000CF910895CF93DF9300D000D0CDB7DEB743
:101320009A8389837C836B8389819A810E94160AC0
:1013300044E650E067E970E087E890E00E94210B06
:101340008B819C8160E10E94430A00000F900F9006
:101350000F900F90DF91CF910895CF93DF9300D03E
:1013600000D0CDB7DEB79A8389837C836B83898174
:101370009A810E94160A44E650E067E970E087E827
:1013800090E00E947E028B819C8160E10E94430A72
:1013900000000F900F900F900F90DF91CF91089564
:1013A000CF93DF9300D000D0CDB7DEB79A83898387
:1013B0007C836B8389819A810E94160A44E650E0FF
:1013C00067E970E087E890E00E94BF028B819C8112
:1013D00060E10E94430A00000F900F900F900F9061
:1013E000DF91CF910895CF93DF9300D000D0CDB798
:1013F000DEB79A8389837C836B8389819A810E947B
:10140000160A44E650E067E970E087E890E00E9441
:10141000860A8B819C8160E10E94430A00000F9044
:101420000F900F900F90DF91CF910895CF93DF939E
:1014300000D01F92CDB7DEB79B838A83198215C077
:101440008981882F90E02981222F30E04A815B81B9
:10145000240F351F275F3F4FF901208189579F4F88
:10146000FC01208389818F5F89838A819B81FC01B4
:1014700090858981891720F300000F900F900F90BD
:10148000DF91CF910895CF93DF9300D000D0CDB7F7
:10149000DEB79B838A836C838C8122E0280F8A814C
:1014A0009B81FC0122838A819B812C81FC01258305
:1014B0008A819B8120E9FC0123838A819B81FC0135
:1014C0001482198214C08981882F90E02981222FEB
:1014D00030E029563F4FF90140812A813B81820F3C
:1014E000931F0696FC01408389818F5F89838A81DF
:1014F0009B81FC0195818981891728F300000F9059
:101500000F900F900F90DF91CF910895CF93DF93BD
:1015100000D000D000D0CDB7DEB79A8389837C831A
:101520006B835E834D8387E390E027E330E0F9012E
:101530002081206AFC01208388E390E028E330E0EA
:10154000F9012081206AFC0120834B815C812D817F
:101550003E8189819A81B9010E94F40388E390E079
:1015600028E330E0F90120812F75FC012083000081
:1015700026960FB6F894DEBF0FBECDBFDF91CF9198
:101580000895CF93DF93CDB7DEB727970FB6F894C2
:10159000DEBF0FBECDBF9B838A837D836C835F8359
:1015A0004E8387E390E027E330E0F9012081206A51
:1015B000FC01208388E390E028E330E0F9012081FA
:1015C000206AFC012083198226C08981882F90E03F
:1015D0002FE030E0A901481B590BCA019C018C8106
:1015E0009D81820F931F2981222F30E04A815B81E8
:1015F000240F351FF90160812981222F30E04E81AF
:101600005F81240F351FF90120812627FC012083EB
:1016100089818F5F898389818031B8F288E390E086
:1016200028E330E0F90120812F75FC0120830000C0
:1016300027960FB6F894DEBF0FBECDBFDF91CF91D6
:101640000895CF93DF93CDB7DEB727970FB6F89401
:10165000DEBF0FBECDBF9B838A837D836C835F8398
:101660004E8387E390E027E330E0F9012081206A90
:10167000FC01208388E390E028E330E0F901208139
:10168000206AFC012083198226C08981882F90E07E
:101690002C813D81820F931F2981222F30E04FE062
:1016A00050E0BA01621B730B9B01A9012A813B81A7
:1016B000240F351FF90160812981222F30E04E81EE
:1016C0005F81240F351FF90120812627FC0120832B
:1016D00089818F5F898389818031B8F288E390E0C6
:1016E00028E330E0F90120812F75FC012083000000
:1016F00027960FB6F894DEBF0FBECDBFDF91CF9116
:101700000895CF93DF931F92CDB7DEB787E892E0BD
:1017100090938402809383028DE592E090938602F9
:101720008093850280918302909184020E94F40E3E
:1017300080918502909186020E941D0F0E94F30BFA
:1017400080918302909184020E94490C898389814F
:10175000813059F180918502909186022091870213
:10176000FC0120838091850290918602209188025D
:10177000FC012183809185029091860222E0FC0188
:1017800022838091850290918602FC0115828091CE
:1017900085029091860227E6FC01238380918502D1
:1017A00090918602FC0114820BC020918502309139
:1017B00086028091830290918402B9010E94680898
:1017C00080918502909186020E94830D8091830210
:1017D000909184020E94F40E80918502909186027D
:1017E0000E941D0FADCFCF93DF9300D0CDB7DEB7F2
:1017F0001A8281E089830DC08981882F90E08C58FE
:101800009F4FFC0180819A8189278A8389818F5F1C
:1018100089838981863080F319820DC08981882F60
:1018200090E086589F4FFC0180819A8189278A83A6
:1018300089818F5F898389818A3080F319820CC006
:101840008981882F90E08C589F4FFC0180810E94F5
:101850004B0389818F5F89838981863088F3198260
:101860000CC08981882F90E086589F4FFC018081B1
:101870000E944B0389818F5F898389818A3088F335
:101880008A810E944B0300000F900F90DF91CF914F
:101890000895CF93DF93CDB7DEB7CF54D1090FB6FC
:1018A000F894DEBF0FBECDBF9E01225B3F4FF90112
:1018B0009183808319820E9406038C830E94060311
:1018C0008D830E9406038E831B821A8211C00E94A0
:1018D0000603482F9E01285F3F4F8A819B81820F1C
:1018E000931FFC0140838A819B8101969B838A839D
:1018F0008E81282F30E08A819B81821793073CF3E9
:101900000E9406038F83CE01825B9F4FFC01808182
:1019100091812C81FC01208399818C818927898385
:10192000CE01825B9F4FFC01808191812D81FC0162
:10193000218399818D8189278983CE01825B9F4F85
:10194000FC01808191812E81FC01228399818E810D
:10195000892789831B821A8211C09E01285F3F4F0D
:101960008A819B81820F931FFC0180819981892745
:1019700089838A819B8101969B838A838E81282F0C
:1019800030E08A819B81821793073CF32885CE0142
:10199000825B9F4FFC0180819181FC01238329851B
:1019A000CE01825B9F4FFC0180819181FC012483E9
:1019B0002A85CE01825B9F4FFC0180819181FC01D1
:1019C00025832B85CE01825B9F4FFC018081918115
:1019D000FC012683CE01825B9F4FFC0180819181B7
:1019E000FC018281853051F42C85CE01825B9F4FB2
:1019F000FC0180819181FC01208774C0CE01825B53
:101A00009F4FFC0180819181FC018281863008F426
:101A100069C02C85CE01825B9F4FFC018081918142
:101A2000FC0127831B821A821CC08A819B81059638
:101A30009E01285F3F4F820F931FFC014081CE0122
:101A4000825B9F4FFC01208131818A819B81820FC3
:101A5000931F0996FC0140838A819B8101969B8399
:101A60008A83CE01825B9F4FFC0180819181FC01C2
:101A70008781282F30E08A819B8182179307ACF2FF
:101A8000CE01825B9F4FFC0180819181FC018281AC
:101A9000282F30E0CE01825B9F4FFC018081918135
:101AA000FC018781882F90E0059682179307D4F474
:101AB000CE01825B9F4FFC0180819181FC0182817C
:101AC000882F90E001979E01285F3F4F820F931F60
:101AD000FC012081CE01825B9F4FFC0180819181BE
:101AE000FC01208799818F81981711F08FEF01C039
:101AF00081E0C15BDF4F0FB6F894DEBF0FBECDBFF4
:101B0000DF91CF910895CF93DF93CDB7DEB7CA545D
:101B1000D1090FB6F894DEBF0FBECDBF9E01275B83
:101B20003F4FF90191838083CE01875B9F4FFC017A
:101B300080819181FC01818188230CF068C0198229
:101B4000CE01875B9F4FFC0180819181FC018081E8
:101B50008B83CE01875B9F4FFC0180819181FC01CB
:101B60008081998189278983CE01875B9F4FFC0102
:101B700080819181FC0181818C83CE01875B9F4FA5
:101B8000FC0180819181FC01818199818927898370
:101B9000CE01875B9F4FFC0180819181FC01828196
:101BA0008D83CE01875B9F4FFC0180819181FC0179
:101BB0008281998189278983CE01875B9F4FFC01B0
:101BC00080819181FC0186818E83CE01875B9F4F4E
:101BD000FC0180819181FC0186819981892789831B
:101BE00089818F831A820FC08A81882F90E09E019D
:101BF0002D5F3F4F820F931FFC0180810E944B039A
:101C00008A818F5F8A838A81853070F3E2C019826E
:101C1000CE01875B9F4FFC0180819181FC01808117
:101C20008B83CE01875B9F4FFC0180819181FC01FA
:101C30008081998189278983CE01875B9F4FFC0131
:101C400080819181FC0181818C83CE01875B9F4FD4
:101C5000FC0180819181FC0181819981892789839F
:101C6000CE01875B9F4FFC0180819181FC018281C5
:101C70008D83CE01875B9F4FFC0180819181FC01A8
:101C800082819981892789831A822EC08A81882F2F
:101C900090E003962A81222F30E0AE01475B5F4F30
:101CA000FA0140815181240F351F2A5F3F4FF9010E
:101CB00040819E012D5F3F4F820F931FFC014083A7
:101CC0008A81882F90E09E01275B3F4FF901208198
:101CD0003181820F931F0696FC01808199818927AB
:101CE00089838A818F5F8A83CE01875B9F4FFC0146
:101CF00080819181FC0195818A81891738F28A81DE
:101D0000882F90E003969E01275B3F4FF9012081C9
:101D10003181F90143819E012D5F3F4F820F931F57
:101D2000FC014083CE01875B9F4FFC018081918144
:101D3000FC0183819981892789838A81882F90E09A
:101D400004969E01275B3F4FF90120813181F90103
:101D500044819E012D5F3F4F820F931FFC01408302
:101D6000CE01875B9F4FFC0180819181FC018481C2
:101D70009981892789838A81882F90E005969E0121
:101D80002D5F3F4F820F931F2981FC0120831A8210
:101D90000FC08A81882F90E09E012D5F3F4F820FF8
:101DA000931FFC0180810E944B038A818F5F8A838D
:101DB0008A81282F30E0CE01875B9F4FFC01808114
:101DC0009181FC018281882F90E0049628173907C1
:101DD00004F30000C65BDF4F0FB6F894DEBF0FBE02
:101DE000CDBFDF91CF910895CF93DF9300D0CDB7D2
:101DF000DEB79A83898389819A81FC011082898167
:101E00009A81FC01118289819A81FC011282898167
:101E10009A81FC01108689819A81FC01178289814F
:101E20009A81FC01138289819A81FC01148200004D
:101E30000F900F90DF91CF910895CF93DF9300D053
:101E4000CDB7DEB79A83898389819A81FC0110829C
:101E500089819A81FC01118289819A8122E0FC01A9
:101E6000228389819A81FC01158289819A8124E6E5
:101E7000FC01238389819A81FC01148200000F9068
:101E80000F90DF91CF910895CF93DF9300D0CDB71E
:101E9000DEB79A83898389819A8122E0FC012283BB
:101EA00089819A81FC01158289819A812EE6FC0143
:101EB000238389819A81FC01148200000F900F9086
:101EC000DF91CF910895CF93DF9300D0CDB7DEB7E8
:101ED0009A83898389819A8122E0FC012283898106
:101EE0009A81FC01158289819A8128E6FC0123836D
:101EF00089819A81FC01148200000F900F90DF917C
:101F0000CF910895CF93DF9300D0CDB7DEB79A83FA
:101F1000898389819A8122E0FC01228389819A81C7
:101F2000FC01158289819A812AE6FC01238389813B
:101F30009A81FC01148200000F900F90DF91CF91E5
:101F400008958F929F92AF92BF92CF92DF92EF92BD
:101F5000FF92CF93DF93EC01688179818A819B8125
:101F6000611571058105910521F464E279ED8BE538
:101F700097E02DE133EF41E050E00E94FD0F490171
:101F80005A019B01AC01A7EAB1E40E941C106B014D
:101F90007C01ACEEB4EFA50194010E942A10DC0193
:101FA000CB018C0D9D1DAE1DBF1DB7FF03C001975A
:101FB000A109B04888839983AA83BB839F77DF9167
:101FC000CF91FF90EF90DF90CF90BF90AF909F9018
:101FD0008F9008950E94A10F089580E690E00E94DE
:101FE000A10F0895A0E0B0E080936000909361009D
:101FF000A0936200B09363000895052E97FB1EF432
:1020000000940E94141057FD07D00E942F1007FC67
:1020100003D04EF40C9414105095409530952195B2
:102020003F4F4F4F5F4F0895909580957095619504
:102030007F4F8F4F9F4F08950E945110A59F900D85
:10204000B49F900DA49F800D911D11240895B7FF9A
:102050000C941C100E941C10821B930B0895A1E28B
:102060001A2EAA1BBB1BFD010DC0AA1FBB1FEE1F12
:10207000FF1FA217B307E407F50720F0A21BB30B5D
:10208000E40BF50B661F771F881F991F1A9469F7D9
:1020900060957095809590959B01AC01BD01CF0135
:1020A0000895A29FB001B39FC001A39F700D811D31
:1020B0001124911DB29F700D811D1124911D089551
:0420C000F894FFCFC2
:1020C40001000000001122CAFEBABE123456789AEA
:1020D400DEADBEEF3BBA110011812A4649545F437D
:0420E4005655542ACF
:00000001FF
