:100000000C942A000C9447000C9447000C94470071
:100010000C9447000C9447000C9447000C94470044
:100020000C9447000C9447000C9447000C94470034
:100030000C9447000C9447000C9447000C94470024
:100040000C9447000C9447000C9447000C94470014
:100050000C94470011241FBECFE5D8E0DEBFCDBF12
:1000600011E0A0E6B0E0ECE3FEE002C005900D92E6
:10007000AC3BB107D9F712E0ACEBB1E001C01D9287
:10008000AD34B107E1F70E94D1060C941C070C9423
:100090000000FC018081DB018C93818111968C939F
:1000A00011978181813C71F480818C9381EE11964E
:1000B0008C93119781E012968C93129783811696F8
:1000C0008C93089583818038B1F584818035D9F08F
:1000D00028F4803441F0823479F02AC08235D1F09E
:1000E0008036F9F025C08781803141F580858031E7
:1000F00029F5CF010C94C70287818031F9F48085FE
:100100008031E1F41EC087818031C1F48085803167
:10011000A9F41AC08781803189F48085803171F417
:1001200016C08781803151F48085803139F412C046
:10013000CB010C948B02CB010C948302CB010C9469
:100140009302CF010C94DA02CF010C94ED02CF019F
:100150000C940003CF010C941303FC012781261398
:1001600005C08085841302C081E008958FEF089553
:1001700065E16A95F1F7089569E7FBCF7F936F9387
:100180005F934F9361E060934C02BE98C698B69916
:10019000FECFB699FCCF882799276FE1EADF22D0FE
:1001A000000059E0442762E400000000E2DF1AD0BA
:1001B000470F889470FD0894879561E45A95B1F7CC
:1001C000881F40FD08C06CE4D4DF99274F915F91F0
:1001D0006F917F9108956CE4CCDFBE9AC69866EB70
:1001E000C8DFD3CF77278894B6990894791FC0DFEA
:1001F0008894B6990894791FBBDF8894B6990894BF
:10020000791F769508956F937F9360914C026623D2
:1002100029F0B2DFB1DF60E060934C02C69ABE9A6B
:10022000C69867E7A6DF98E07727879510F0C6980D
:1002300002C0C69A739566E79CDF00009A95A9F7FD
:1002400070FD04C000000000C69804C00000C69AFB
:100250000000000060E78DDFC69A67E78ADFBE987E
:10026000C6988894B699089430F08795B699FECFD1
:100270006AE37FDFD3CF64E77CDF7F916F910895DE
:100280001F93CF93DF93E0EAF0E01BE381911827FF
:1002900080E0EA3AF807D1F7CAEAD0E089910E94F3
:1002A000030180E0C03BD807C9F7C0EAD0E08991DC
:1002B0000E94030180E0CA3AD807C9F7812FDF9175
:1002C000CF911F910C9403017F928F929F92AF92D6
:1002D000BF92CF92DF92EF92FF920F931F93CF9333
:1002E000DF93CDB7DEB7C654D1090FB6F894DEBFA1
:1002F0000FBECDBF8C010E94BE00882E0E94BE00A2
:10030000782E0E94BE00982ECE0101966C015C01F1
:10031000E92CF12C95012C193D092E153F0534F4DB
:100320000E94BE00F50181935F01F4CF0E94BE00E0
:10033000F80180827182972D982592829925F60185
:100340009F012C193D092E153F051CF42191922780
:10035000F7CF2981F80123832A8124832B812583E8
:100360002C812683F5E09F1202C02D8120C0F5E08C
:10037000F915F8F44D81F8014783FE01369620E027
:1003800030E050E0241735074CF46191D801A20FFA
:10039000B31F19966C932F5F3F4FF4CF4B5F5F4FA6
:1003A0004E155F0534F4FE01EE0DFF1D2081F801AE
:1003B0002087981711F08FEF01C081E0CA5BDF4FF3
:1003C0000FB6F894DEBF0FBECDBFDF91CF911F9166
:1003D0000F91FF90EF90DF90CF90BF90AF909F90E4
:1003E0008F907F900895EF92FF920F931F93CF937A
:1003F000DF93CDB7DEB7C654D1090FB6F894DEBF90
:100400000FBECDBF8C01FC018181208192812983A7
:100410008A8387FF17C082279B83892796819C83C5
:1004200089278D838E010F5F1F4F7E01F6E0EF0E4F
:10043000F11CF80181918F010E9403010E151F0527
:10044000C1F740C028279B832927F8013581FE0189
:10045000349680E090E06E2F5F2F831748F4D80128
:10046000A80FB91F16964C91419324270196F5CFFA
:10047000832F90E0F8013381E62FF52FE80FF91F65
:100480003083F8014481FE01E80FF91F45833427CA
:10049000FE01E80FF91F32273683F12C2F2D30E0B3
:1004A000F801828190E00396821793075CF0E1E007
:1004B000F0E0EC0FFD1FE20FF31F80810E940301AB
:1004C000F394ECCFCA5BDF4F0FB6F894DEBF0FBEDC
:1004D000CDBFDF91CF911F910F91FF90EF900895C5
:1004E000FC011082118212821086178213821482FC
:1004F0000895FC011082118282E08283158284E6D5
:10050000838314820895FC0182E0828315828EE643
:10051000838314820895FC0182E08283158288E639
:10052000838314820895FC0182E0828315828AE627
:10053000838314820895FC014085ECECF1E020E017
:1005400030E0241748F4DC01A20FB31F19965C9128
:1005500051932F5F3F4FF5CF0895CF93DF93FC0169
:1005600082E0860F8283658380E983831482ACEB0B
:10057000B1E080E090E0861738F42D91EF01C80FCC
:10058000D91F2E830196F7CFDF91CF910895CF9396
:10059000DF93EB010E949B0240E950E06CEB71E0BD
:1005A0008CEC91E00E94260360E1CE01DF91CF91B7
:1005B0000C94AD02CF93DF93EB010E949B0240E9C4
:1005C00050E06CEB71E08CEC91E00E943F0360E145
:1005D000CE01DF91CF910C94AD02CF93DF93EB016D
:1005E0000E949B0240E950E06CEB71E08CEC91E0E2
:1005F0000E94590360E1CE01DF91CF910C94AD02CE
:10060000CF93DF93EB010E949B0240E950E06CEB3B
:1006100071E08CEC91E00E949A0360E1CE01DF91E1
:10062000CF910C94AD02CF93DF93EB010E949B021C
:1006300040E950E06CEB71E08CEC91E00E946C06BC
:1006400060E1CE01DF91CF910C94AD0227B3206A17
:1006500027BB28B3206A28BBFA01605F7F4F20E0E8
:10066000DC014D91CD0131913427DB013E93BD0179
:100670002F5F2031A9F788B38F7588BB0895CF937A
:10068000DF9327B3206A27BB28B3206A28BBEC017D
:100690006096DA01FB0180E09D912A919227919367
:1006A0008F5F8031C9F788B38F7588BBDF91CF9199
:1006B00008952F923F924F925F926F927F928F9206
:1006C0009F92AF92BF92CF92DF92EF92FF920F93E1
:1006D0001F93CF93DF93EF93FF93B92FA82FD72FBB
:1006E000C62FF52FE42FBD9ABF9AC59AC79A00E18D
:1006F0001127C00FD11F20E10D91119101270A93FD
:100700002A95D1F7C598C798FF91EF91DF91CF91C6
:100710001F910F91FF90EF90DF90CF90BF90AF901F
:100720009F908F907F906F905F904F903F902F9011
:10073000112408952F923F924F925F926F927F9271
:100740008F929F92AF92BF92CF92DF92EF92FF92E1
:100750000F931F93CF93DF93EF93FF93A82FB92F9E
:10076000C62FD72FE42FF52FBD9ABF9AC59AC79AE7
:1007700000E11127A00FB11F20E10E911191012777
:1007800009932A95D1F7C598C798FF91EF91DF910A
:10079000CF911F910F91FF90EF90DF90CF90BF907E
:1007A000AF909F908F907F906F905F904F903F9011
:1007B0002F9011240895FC0120E030E0A081B0E0EA
:1007C000A454BF4F8C9181932F5F3F4F203131054F
:1007D000A9F70895FC018181958191839185958385
:1007E00095859187858792818681228522832685BA
:1007F00026839287868787859385978797819387B6
:100800009381978383830895982F990F990B9B71F8
:10081000880F892708958F929F92AF92BF92CF92AF
:10082000DF92EF92FF920F931F93CF93DF93EC0130
:100830008C01005F1F4FA880C980DA80BB808A2DA1
:100840000E940404982E8C2D0E940404F82EE82E99
:10085000E924EC24ED24EB248D2D0E940404882E41
:10086000F826FA24FD24FB248B2D0E940404E88240
:10087000F982282F28252A252C252B252A83982FF5
:1008800099259A259C259D259B832496C017D107E1
:1008900091F6DF91CF911F910F91FF90EF90DF9034
:1008A000CF90BF90AF909F908F9008955F926F927E
:1008B0007F928F929F92AF92BF92CF92DF92EF92F0
:1008C000FF920F931F93CF93DF93EC01E981F0E048
:1008D000E454FF4F0081EA81F0E0E454FF4FD08000
:1008E000EB81F0E0E454FF4FC080EE81F0E0E4548F
:1008F000FF4FE080EF81F0E0E454FF4FF080EB85A4
:10090000F0E0E454FF4F1081E881F0E0E454FF4F41
:100910008080ED81F0E0E454FF4F9080EA85F0E0C4
:10092000E454FF4FB080EF85F0E0E454FF4FA08027
:10093000882D0E940404782E892D0E940404582ECC
:100940009B2D99259A259725982798838B2D0E9472
:100950000404682E9B2D98259A2595259827998320
:100960008A2D0E940404992D9825292F2A252625B1
:1009700028272A839B25972598279B83EC81F0E0E5
:10098000E454FF4F9080E985F0E0E454FF4FA080ED
:10099000EE85F0E0E454FF4FB080892D0E940404FE
:1009A000882E8A2D0E940404582E2A2D2C252B25B2
:1009B000282528272C838B2D0E940404782E692C4F
:1009C0006C24362D3B25352538273D838C2D0E9400
:1009D0000404262D2A25272528272E839A2D99259C
:1009E0009B25982598279F83E885F0E0E454FF4FE6
:1009F000B080ED85F0E0E454FF4FC0808B2D0E9465
:100A00000404A82E8C2D0E940404882E7F2C7D24A3
:100A1000272D2C252A25282728878D2D0E94040480
:100A2000982E972D9B259825982799878F2D0E9482
:100A30000404FB24FC24F924F826FA86DB24DC24B5
:100A4000DA24D826DB86EC85F0E0E454FF4FF08012
:100A50008F2D0E940404D82E802F0E940404A82EFB
:100A6000CE2CC0262C2D21272D2528272C878E2DF6
:100A70000E940404B82EE126EF24EA24E826ED863D
:100A8000812F0E94040410271F251B2518271E876D
:100A90009C2D9F259D2598279F87DF91CF911F91A2
:100AA0000F91FF90EF90DF90CF90BF90AF909F900D
:100AB0008F907F906F905F900895CF93FC01A181FC
:100AC000B0E0A454BF4F8C91A281B0E0A454BF4FBA
:100AD0009C91A381B0E0A454BF4F5C91A681B0E08B
:100AE000A454BF4F3C91A781B0E0A454BF4F4C9198
:100AF000A385B0E0A454BF4F2C91A581B0E0A454CD
:100B0000BF4FCC91A285B0E0A454BF4F7C91A78584
:100B1000B0E0A454BF4F6C91A081B0E0A454BF4F8B
:100B2000AC91A083C18372836383A185B0E0A45498
:100B3000BF4F7C91A685B0E0A454BF4F6C91A481B7
:100B4000B0E0A454BF4FAC91A483758366835783F0
:100B5000A585B0E0A454BF4F5C91A085B0E0A4543B
:100B6000BF4F6C916087518792874387A485B0E01F
:100B7000A454BF4F9C919487858736872787CF9150
:100B800008958F929F92AF92BF92CF92DF92EF9291
:100B9000FF920F931F93CF93DF93DC01FC0180E062
:100BA00090E0EB012991BE012193019680319105DE
:100BB000C1F71C96DC901C971D96AC901D971E9655
:100BC000BC901E971F96CC901F97FD01739621E055
:100BD00030E08F0102511109BF0161517109AF016C
:100BE000405151097C01DFE0ED22FF24EF2861F53F
:100BF000CA2DD0E0C454DF4FF8808B2C912CE40137
:100C0000C454DF4F4E01E801A880E4011881A126F9
:100C10000C2D10E004541F4FEB01B880E8016881EF
:100C2000B6266D2D70E064547F4FEA01C880EB0159
:100C30004881C426DC90DF24E901C055DF4F48819C
:100C4000D4262F5F3F4F0BC0CC91DC26E8011881E2
:100C5000A126EB016881B626EA014881C426EF018E
:100C60002397D882EF012297A882EF012197B882BB
:100C7000C082049614963496803B910509F0A9CF62
:100C8000DF91CF911F910F91FF90EF90DF90CF9068
:100C9000BF90AF909F908F9008950F931F93CF9325
:100CA000FC0120E030E0C081DA018D919C91119728
:100CB0008C010F5F1F4F0D931C93DB01A80FB91F11
:100CC0008C91C827C1932F5F3F4F2031310559F7D1
:100CD000CF911F910F910895EF92FF920F931F9361
:100CE000CF93DF93CDB7DEB7C25BD1090FB6F894CF
:100CF000DEBF0FBECDBF7B01CF54DF4F19821882FC
:100D0000C15BD040DC01FB0120E030E08D9181939C
:100D10002F5F3F4F20313105C9F7BA01CE0101964F
:100D20000E94C105AE014F545F4FBE016F5F7F4F00
:100D3000C7010E944D0609E010E0C7010E94DB03D5
:100D4000C7010E94EA03C7010E940B04AE014F5481
:100D50005F4FBE016F5F7F4FC7010E944D0601507C
:100D600011090115110549F7C7010E94DB03C701ED
:100D70000E94EA03AE014F545F4FBE016F5F7F4F89
:100D8000C7010E944D06CE54DF4F0FB6F894DEBF68
:100D90000FBECDBFDF91CF911F910F91FF90EF90CC
:100DA000089586E092E090930302809302028CED16
:100DB00091E0909305028093040286E092E00E9405
:100DC000700280910402909105020E9479020E94B3
:100DD0004001C2E0D7E680910202909103020E9496
:100DE0006401E0910402F0910502813059F0809194
:100DF00006028083809107028183C2831582D38398
:100E0000148207C0BF0180910202909103020E94E8
:100E1000490080910402909105020E94F3018091A3
:100E20000202909103020E9470028091040290914C
:0C0E300005020E947902CFCFF894FFCF9A
:100E3C00303132333435363730313233343536376E
:100E4C00303132333435363730313233343536375E
:100E5C00303132333435363730313233343536374E
:100E6C0000010203040506070809AABBCCDDEEFF4E
:100E7C002A4649545F435655542A3BBA11001181F6
:100E8C008D01020408102040801B3600637C777BA8
:100E9C00F26B6FC53001672BFED7AB76CA82C97D6A
:100EAC00FA5947F0ADD4A2AF9CA472C0B7FD9326FB
:100EBC00363FF7CC34A5E5F171D8311504C723C3FF
:100ECC001896059A071280E2EB27B27509832C1A43
:100EDC001B6E5AA0523BD6B329E32F8453D100ED9D
:100EEC0020FCB15B6ACBBE394A4C58CFD0EFAAFB81
:100EFC00434D338545F9027F503C9FA851A3408F49
:100F0C00929D38F5BCB6DA2110FFF3D2CD0C13EC60
:100F1C005F974417C4A77E3D645D197360814FDCF5
:100F2C00222A908846EEB814DE5E0BDBE0323A0AD9
:100F3C004906245CC2D3AC629195E479E7C8376D5D
:100F4C008DD54EA96C56F4EA657AAE08BA78252E82
:100F5C001CA6B4C6E8DD741F4BBD8B8A703EB5660B
:100F6C004803F60E613557B986C11D9EE1F89811FC
:100F7C0069D98E949B1E87E9CE5528DF8CA1890DEB
:0C0F8C00BFE6426841992D0FB054BB161F
:00000001FF
